{
  "_format": "hh-sol-artifact-1",
  "contractName": "Token",
  "sourceName": "contracts/Token.sol",
  "abi": [
    {
      "inputs": [
        {
          "internalType": "uint256",
          "name": "_initialAmount",
          "type": "uint256"
        }
      ],
      "stateMutability": "nonpayable",
      "type": "constructor"
    },
    {
      "inputs": [
        {
          "internalType": "address",
          "name": "",
          "type": "address"
        }
      ],
      "name": "balances",
      "outputs": [
        {
          "internalType": "uint256",
          "name": "",
          "type": "uint256"
        }
      ],
      "stateMutability": "view",
      "type": "function"
    },
    {
      "inputs": [],
      "name": "decimals",
      "outputs": [
        {
          "internalType": "uint8",
          "name": "",
          "type": "uint8"
        }
      ],
      "stateMutability": "view",
      "type": "function"
    },
    {
      "inputs": [],
      "name": "name",
      "outputs": [
        {
          "internalType": "string",
          "name": "",
          "type": "string"
        }
      ],
      "stateMutability": "view",
      "type": "function"
    },
    {
      "inputs": [],
      "name": "symbol",
      "outputs": [
        {
          "internalType": "string",
          "name": "",
          "type": "string"
        }
      ],
      "stateMutability": "view",
      "type": "function"
    },
    {
      "inputs": [],
      "name": "totalSupply",
      "outputs": [
        {
          "internalType": "uint256",
          "name": "",
          "type": "uint256"
        }
      ],
      "stateMutability": "view",
      "type": "function"
    }
  ],
  "bytecode": "0x608060405234801561001057600080fd5b5060405161073e38038061073e833981810160405281019061003291906101ef565b6040518060400160405280600981526020017f35303534313631313900000000000000000000000000000000000000000000008152506000908051906020019061007d929190610137565b506040518060400160405280600581526020017f4353313838000000000000000000000000000000000000000000000000000000815250600290805190602001906100c9929190610137565b506012600160006101000a81548160ff021916908360ff1602179055508060038190555080600460003373ffffffffffffffffffffffffffffffffffffffff1673ffffffffffffffffffffffffffffffffffffffff168152602001908152602001600020819055505061029a565b82805461014390610222565b90600052602060002090601f01602090048101928261016557600085556101ac565b82601f1061017e57805160ff19168380011785556101ac565b828001600101855582156101ac579182015b828111156101ab578251825591602001919060010190610190565b5b5090506101b991906101bd565b5090565b5b808211156101d65760008160009055506001016101be565b5090565b6000815190506101e981610283565b92915050565b60006020828403121561020157600080fd5b600061020f848285016101da565b91505092915050565b6000819050919050565b6000600282049050600182168061023a57607f821691505b6020821081141561024e5761024d610254565b5b50919050565b7f4e487b7100000000000000000000000000000000000000000000000000000000600052602260045260246000fd5b61028c81610218565b811461029757600080fd5b50565b610495806102a96000396000f3fe608060405234801561001057600080fd5b50600436106100575760003560e01c806306fdde031461005c57806318160ddd1461007a57806327e235e314610098578063313ce567146100c857806395d89b41146100e6575b600080fd5b610064610104565b60405161007191906102e6565b60405180910390f35b610082610192565b60405161008f9190610308565b60405180910390f35b6100b260048036038101906100ad9190610266565b610198565b6040516100bf9190610308565b60405180910390f35b6100d06101b0565b6040516100dd9190610323565b60405180910390f35b6100ee6101c3565b6040516100fb91906102e6565b60405180910390f35b60008054610111906103d6565b80601f016020809104026020016040519081016040528092919081815260200182805461013d906103d6565b801561018a5780601f1061015f5761010080835404028352916020019161018a565b820191906000526020600020905b81548152906001019060200180831161016d57829003601f168201915b505050505081565b60035481565b60046020528060005260406000206000915090505481565b600160009054906101000a900460ff1681565b600280546101d0906103d6565b80601f01602080910402602001604051908101604052809291908181526020018280546101fc906103d6565b80156102495780601f1061021e57610100808354040283529160200191610249565b820191906000526020600020905b81548152906001019060200180831161022c57829003601f168201915b505050505081565b60008135905061026081610448565b92915050565b60006020828403121561027857600080fd5b600061028684828501610251565b91505092915050565b600061029a8261033e565b6102a48185610349565b93506102b48185602086016103a3565b6102bd81610437565b840191505092915050565b6102d18161038c565b82525050565b6102e081610396565b82525050565b60006020820190508181036000830152610300818461028f565b905092915050565b600060208201905061031d60008301846102c8565b92915050565b600060208201905061033860008301846102d7565b92915050565b600081519050919050565b600082825260208201905092915050565b60006103658261036c565b9050919050565b600073ffffffffffffffffffffffffffffffffffffffff82169050919050565b6000819050919050565b600060ff82169050919050565b60005b838110156103c15780820151818401526020810190506103a6565b838111156103d0576000848401525b50505050565b600060028204905060018216806103ee57607f821691505b6020821081141561040257610401610408565b5b50919050565b7f4e487b7100000000000000000000000000000000000000000000000000000000600052602260045260246000fd5b6000601f19601f8301169050919050565b6104518161035a565b811461045c57600080fd5b5056fea26469706673582212203920b74690788c3f40bc23b5fd2b65d589793796925466f4de261e822d6cdf5f64736f6c63430008000033",
  "linkReferences": {},
  "deployedLinkReferences": {}
}